{
	"data": {
		"bytecode": {
			"linkReferences": {},
			"object": "6080604052348015600e575f80fd5b50610b668061001c5f395ff3fe608060405234801561000f575f80fd5b5060043610610055575f3560e01c8063041a4e56146100595780637a36b3ee14610089578063858986a8146100b9578063bf7297a2146100e9578063de29278914610107575b5f80fd5b610073600480360381019061006e91906103af565b610125565b60405161008091906103f4565b60405180910390f35b6100a3600480360381019061009e9190610549565b61020a565b6040516100b0919061061f565b60405180910390f35b6100d360048036038101906100ce9190610703565b610236565b6040516100e0919061076c565b60405180910390f35b6100f16102d3565b6040516100fe919061061f565b60405180910390f35b61010f610310565b60405161011c919061076c565b60405180910390f35b5f8061013083610333565b90505f805b60028361014291906107df565b8210156101c4575f600a86610157919061080f565b905080600184610167919061083f565b60028661017491906107df565b61017e9190610872565b600a61018a91906109d4565b6101949190610a1e565b8261019f919061083f565b9150600a866101ae91906107df565b955082806101bb90610a5f565b93505050610135565b5f915060016002846101d6919061080f565b036101eb57600a856101e891906107df565b94505b8085036101fe5760019350505050610205565b5f93505050505b919050565b6060828260405160200161021f929190610ae0565b604051602081830303815290604052905092915050565b5f805f90505f5b838110156102c8575f600190505f5b828110156102a45786818151811061026757610266610b03565b5b602002602001015187848151811061028257610281610b03565b5b602002602001015103610297575f91506102a4565b808060010191505061024c565b5080156102ba5782806102b690610a5f565b9350505b50808060010191505061023d565b508091505092915050565b60606040518060400160405280600c81526020017f416e76697461204b756d61720000000000000000000000000000000000000000815250905090565b5f80600190505f600290505f8183610328919061083f565b905080935050505090565b5f805f90505b5f831461036257600a8361034d91906107df565b9250808061035a90610a5f565b915050610339565b80915050919050565b5f604051905090565b5f80fd5b5f80fd5b5f819050919050565b61038e8161037c565b8114610398575f80fd5b50565b5f813590506103a981610385565b92915050565b5f602082840312156103c4576103c3610374565b5b5f6103d18482850161039b565b91505092915050565b5f8115159050919050565b6103ee816103da565b82525050565b5f6020820190506104075f8301846103e5565b92915050565b5f80fd5b5f80fd5b5f601f19601f8301169050919050565b7f4e487b71000000000000000000000000000000000000000000000000000000005f52604160045260245ffd5b61045b82610415565b810181811067ffffffffffffffff8211171561047a57610479610425565b5b80604052505050565b5f61048c61036b565b90506104988282610452565b919050565b5f67ffffffffffffffff8211156104b7576104b6610425565b5b6104c082610415565b9050602081019050919050565b828183375f83830152505050565b5f6104ed6104e88461049d565b610483565b90508281526020810184848401111561050957610508610411565b5b6105148482856104cd565b509392505050565b5f82601f8301126105305761052f61040d565b5b81356105408482602086016104db565b91505092915050565b5f806040838503121561055f5761055e610374565b5b5f83013567ffffffffffffffff81111561057c5761057b610378565b5b6105888582860161051c565b925050602083013567ffffffffffffffff8111156105a9576105a8610378565b5b6105b58582860161051c565b9150509250929050565b5f81519050919050565b5f82825260208201905092915050565b8281835e5f83830152505050565b5f6105f1826105bf565b6105fb81856105c9565b935061060b8185602086016105d9565b61061481610415565b840191505092915050565b5f6020820190508181035f83015261063781846105e7565b905092915050565b5f67ffffffffffffffff82111561065957610658610425565b5b602082029050602081019050919050565b5f80fd5b5f61068061067b8461063f565b610483565b905080838252602082019050602084028301858111156106a3576106a261066a565b5b835b818110156106cc57806106b8888261039b565b8452602084019350506020810190506106a5565b5050509392505050565b5f82601f8301126106ea576106e961040d565b5b81356106fa84826020860161066e565b91505092915050565b5f806040838503121561071957610718610374565b5b5f83013567ffffffffffffffff81111561073657610735610378565b5b610742858286016106d6565b92505060206107538582860161039b565b9150509250929050565b6107668161037c565b82525050565b5f60208201905061077f5f83018461075d565b92915050565b7f4e487b71000000000000000000000000000000000000000000000000000000005f52601260045260245ffd5b7f4e487b71000000000000000000000000000000000000000000000000000000005f52601160045260245ffd5b5f6107e98261037c565b91506107f48361037c565b92508261080457610803610785565b5b828204905092915050565b5f6108198261037c565b91506108248361037c565b92508261083457610833610785565b5b828206905092915050565b5f6108498261037c565b91506108548361037c565b925082820190508082111561086c5761086b6107b2565b5b92915050565b5f61087c8261037c565b91506108878361037c565b925082820390508181111561089f5761089e6107b2565b5b92915050565b5f8160011c9050919050565b5f808291508390505b60018511156108fa578086048111156108d6576108d56107b2565b5b60018516156108e55780820291505b80810290506108f3856108a5565b94506108ba565b94509492505050565b5f8261091257600190506109cd565b8161091f575f90506109cd565b8160018114610935576002811461093f5761096e565b60019150506109cd565b60ff841115610951576109506107b2565b5b8360020a915084821115610968576109676107b2565b5b506109cd565b5060208310610133831016604e8410600b84101617156109a35782820a90508381111561099e5761099d6107b2565b5b6109cd565b6109b084848460016108b1565b925090508184048111156109c7576109c66107b2565b5b81810290505b9392505050565b5f6109de8261037c565b91506109e98361037c565b9250610a167fffffffffffffffffffffffffffffffffffffffffffffffffffffffffffffffff8484610903565b905092915050565b5f610a288261037c565b9150610a338361037c565b9250828202610a418161037c565b91508282048414831517610a5857610a576107b2565b5b5092915050565b5f610a698261037c565b91507fffffffffffffffffffffffffffffffffffffffffffffffffffffffffffffffff8203610a9b57610a9a6107b2565b5b600182019050919050565b5f81905092915050565b5f610aba826105bf565b610ac48185610aa6565b9350610ad48185602086016105d9565b80840191505092915050565b5f610aeb8285610ab0565b9150610af78284610ab0565b91508190509392505050565b7f4e487b71000000000000000000000000000000000000000000000000000000005f52603260045260245ffdfea264697066735822122022aafce9b35106510ef65c8fe83380761fdebdb887ca16a6f663bb58b4c30b6264736f6c634300081a0033",
			"opcodes": "PUSH1 0x80 PUSH1 0x40 MSTORE CALLVALUE DUP1 ISZERO PUSH1 0xE JUMPI PUSH0 DUP1 REVERT JUMPDEST POP PUSH2 0xB66 DUP1 PUSH2 0x1C PUSH0 CODECOPY PUSH0 RETURN INVALID PUSH1 0x80 PUSH1 0x40 MSTORE CALLVALUE DUP1 ISZERO PUSH2 0xF JUMPI PUSH0 DUP1 REVERT JUMPDEST POP PUSH1 0x4 CALLDATASIZE LT PUSH2 0x55 JUMPI PUSH0 CALLDATALOAD PUSH1 0xE0 SHR DUP1 PUSH4 0x41A4E56 EQ PUSH2 0x59 JUMPI DUP1 PUSH4 0x7A36B3EE EQ PUSH2 0x89 JUMPI DUP1 PUSH4 0x858986A8 EQ PUSH2 0xB9 JUMPI DUP1 PUSH4 0xBF7297A2 EQ PUSH2 0xE9 JUMPI DUP1 PUSH4 0xDE292789 EQ PUSH2 0x107 JUMPI JUMPDEST PUSH0 DUP1 REVERT JUMPDEST PUSH2 0x73 PUSH1 0x4 DUP1 CALLDATASIZE SUB DUP2 ADD SWAP1 PUSH2 0x6E SWAP2 SWAP1 PUSH2 0x3AF JUMP JUMPDEST PUSH2 0x125 JUMP JUMPDEST PUSH1 0x40 MLOAD PUSH2 0x80 SWAP2 SWAP1 PUSH2 0x3F4 JUMP JUMPDEST PUSH1 0x40 MLOAD DUP1 SWAP2 SUB SWAP1 RETURN JUMPDEST PUSH2 0xA3 PUSH1 0x4 DUP1 CALLDATASIZE SUB DUP2 ADD SWAP1 PUSH2 0x9E SWAP2 SWAP1 PUSH2 0x549 JUMP JUMPDEST PUSH2 0x20A JUMP JUMPDEST PUSH1 0x40 MLOAD PUSH2 0xB0 SWAP2 SWAP1 PUSH2 0x61F JUMP JUMPDEST PUSH1 0x40 MLOAD DUP1 SWAP2 SUB SWAP1 RETURN JUMPDEST PUSH2 0xD3 PUSH1 0x4 DUP1 CALLDATASIZE SUB DUP2 ADD SWAP1 PUSH2 0xCE SWAP2 SWAP1 PUSH2 0x703 JUMP JUMPDEST PUSH2 0x236 JUMP JUMPDEST PUSH1 0x40 MLOAD PUSH2 0xE0 SWAP2 SWAP1 PUSH2 0x76C JUMP JUMPDEST PUSH1 0x40 MLOAD DUP1 SWAP2 SUB SWAP1 RETURN JUMPDEST PUSH2 0xF1 PUSH2 0x2D3 JUMP JUMPDEST PUSH1 0x40 MLOAD PUSH2 0xFE SWAP2 SWAP1 PUSH2 0x61F JUMP JUMPDEST PUSH1 0x40 MLOAD DUP1 SWAP2 SUB SWAP1 RETURN JUMPDEST PUSH2 0x10F PUSH2 0x310 JUMP JUMPDEST PUSH1 0x40 MLOAD PUSH2 0x11C SWAP2 SWAP1 PUSH2 0x76C JUMP JUMPDEST PUSH1 0x40 MLOAD DUP1 SWAP2 SUB SWAP1 RETURN JUMPDEST PUSH0 DUP1 PUSH2 0x130 DUP4 PUSH2 0x333 JUMP JUMPDEST SWAP1 POP PUSH0 DUP1 JUMPDEST PUSH1 0x2 DUP4 PUSH2 0x142 SWAP2 SWAP1 PUSH2 0x7DF JUMP JUMPDEST DUP3 LT ISZERO PUSH2 0x1C4 JUMPI PUSH0 PUSH1 0xA DUP7 PUSH2 0x157 SWAP2 SWAP1 PUSH2 0x80F JUMP JUMPDEST SWAP1 POP DUP1 PUSH1 0x1 DUP5 PUSH2 0x167 SWAP2 SWAP1 PUSH2 0x83F JUMP JUMPDEST PUSH1 0x2 DUP7 PUSH2 0x174 SWAP2 SWAP1 PUSH2 0x7DF JUMP JUMPDEST PUSH2 0x17E SWAP2 SWAP1 PUSH2 0x872 JUMP JUMPDEST PUSH1 0xA PUSH2 0x18A SWAP2 SWAP1 PUSH2 0x9D4 JUMP JUMPDEST PUSH2 0x194 SWAP2 SWAP1 PUSH2 0xA1E JUMP JUMPDEST DUP3 PUSH2 0x19F SWAP2 SWAP1 PUSH2 0x83F JUMP JUMPDEST SWAP2 POP PUSH1 0xA DUP7 PUSH2 0x1AE SWAP2 SWAP1 PUSH2 0x7DF JUMP JUMPDEST SWAP6 POP DUP3 DUP1 PUSH2 0x1BB SWAP1 PUSH2 0xA5F JUMP JUMPDEST SWAP4 POP POP POP PUSH2 0x135 JUMP JUMPDEST PUSH0 SWAP2 POP PUSH1 0x1 PUSH1 0x2 DUP5 PUSH2 0x1D6 SWAP2 SWAP1 PUSH2 0x80F JUMP JUMPDEST SUB PUSH2 0x1EB JUMPI PUSH1 0xA DUP6 PUSH2 0x1E8 SWAP2 SWAP1 PUSH2 0x7DF JUMP JUMPDEST SWAP5 POP JUMPDEST DUP1 DUP6 SUB PUSH2 0x1FE JUMPI PUSH1 0x1 SWAP4 POP POP POP POP PUSH2 0x205 JUMP JUMPDEST PUSH0 SWAP4 POP POP POP POP JUMPDEST SWAP2 SWAP1 POP JUMP JUMPDEST PUSH1 0x60 DUP3 DUP3 PUSH1 0x40 MLOAD PUSH1 0x20 ADD PUSH2 0x21F SWAP3 SWAP2 SWAP1 PUSH2 0xAE0 JUMP JUMPDEST PUSH1 0x40 MLOAD PUSH1 0x20 DUP2 DUP4 SUB SUB DUP2 MSTORE SWAP1 PUSH1 0x40 MSTORE SWAP1 POP SWAP3 SWAP2 POP POP JUMP JUMPDEST PUSH0 DUP1 PUSH0 SWAP1 POP PUSH0 JUMPDEST DUP4 DUP2 LT ISZERO PUSH2 0x2C8 JUMPI PUSH0 PUSH1 0x1 SWAP1 POP PUSH0 JUMPDEST DUP3 DUP2 LT ISZERO PUSH2 0x2A4 JUMPI DUP7 DUP2 DUP2 MLOAD DUP2 LT PUSH2 0x267 JUMPI PUSH2 0x266 PUSH2 0xB03 JUMP JUMPDEST JUMPDEST PUSH1 0x20 MUL PUSH1 0x20 ADD ADD MLOAD DUP8 DUP5 DUP2 MLOAD DUP2 LT PUSH2 0x282 JUMPI PUSH2 0x281 PUSH2 0xB03 JUMP JUMPDEST JUMPDEST PUSH1 0x20 MUL PUSH1 0x20 ADD ADD MLOAD SUB PUSH2 0x297 JUMPI PUSH0 SWAP2 POP PUSH2 0x2A4 JUMP JUMPDEST DUP1 DUP1 PUSH1 0x1 ADD SWAP2 POP POP PUSH2 0x24C JUMP JUMPDEST POP DUP1 ISZERO PUSH2 0x2BA JUMPI DUP3 DUP1 PUSH2 0x2B6 SWAP1 PUSH2 0xA5F JUMP JUMPDEST SWAP4 POP POP JUMPDEST POP DUP1 DUP1 PUSH1 0x1 ADD SWAP2 POP POP PUSH2 0x23D JUMP JUMPDEST POP DUP1 SWAP2 POP POP SWAP3 SWAP2 POP POP JUMP JUMPDEST PUSH1 0x60 PUSH1 0x40 MLOAD DUP1 PUSH1 0x40 ADD PUSH1 0x40 MSTORE DUP1 PUSH1 0xC DUP2 MSTORE PUSH1 0x20 ADD PUSH32 0x416E76697461204B756D61720000000000000000000000000000000000000000 DUP2 MSTORE POP SWAP1 POP SWAP1 JUMP JUMPDEST PUSH0 DUP1 PUSH1 0x1 SWAP1 POP PUSH0 PUSH1 0x2 SWAP1 POP PUSH0 DUP2 DUP4 PUSH2 0x328 SWAP2 SWAP1 PUSH2 0x83F JUMP JUMPDEST SWAP1 POP DUP1 SWAP4 POP POP POP POP SWAP1 JUMP JUMPDEST PUSH0 DUP1 PUSH0 SWAP1 POP JUMPDEST PUSH0 DUP4 EQ PUSH2 0x362 JUMPI PUSH1 0xA DUP4 PUSH2 0x34D SWAP2 SWAP1 PUSH2 0x7DF JUMP JUMPDEST SWAP3 POP DUP1 DUP1 PUSH2 0x35A SWAP1 PUSH2 0xA5F JUMP JUMPDEST SWAP2 POP POP PUSH2 0x339 JUMP JUMPDEST DUP1 SWAP2 POP POP SWAP2 SWAP1 POP JUMP JUMPDEST PUSH0 PUSH1 0x40 MLOAD SWAP1 POP SWAP1 JUMP JUMPDEST PUSH0 DUP1 REVERT JUMPDEST PUSH0 DUP1 REVERT JUMPDEST PUSH0 DUP2 SWAP1 POP SWAP2 SWAP1 POP JUMP JUMPDEST PUSH2 0x38E DUP2 PUSH2 0x37C JUMP JUMPDEST DUP2 EQ PUSH2 0x398 JUMPI PUSH0 DUP1 REVERT JUMPDEST POP JUMP JUMPDEST PUSH0 DUP2 CALLDATALOAD SWAP1 POP PUSH2 0x3A9 DUP2 PUSH2 0x385 JUMP JUMPDEST SWAP3 SWAP2 POP POP JUMP JUMPDEST PUSH0 PUSH1 0x20 DUP3 DUP5 SUB SLT ISZERO PUSH2 0x3C4 JUMPI PUSH2 0x3C3 PUSH2 0x374 JUMP JUMPDEST JUMPDEST PUSH0 PUSH2 0x3D1 DUP5 DUP3 DUP6 ADD PUSH2 0x39B JUMP JUMPDEST SWAP2 POP POP SWAP3 SWAP2 POP POP JUMP JUMPDEST PUSH0 DUP2 ISZERO ISZERO SWAP1 POP SWAP2 SWAP1 POP JUMP JUMPDEST PUSH2 0x3EE DUP2 PUSH2 0x3DA JUMP JUMPDEST DUP3 MSTORE POP POP JUMP JUMPDEST PUSH0 PUSH1 0x20 DUP3 ADD SWAP1 POP PUSH2 0x407 PUSH0 DUP4 ADD DUP5 PUSH2 0x3E5 JUMP JUMPDEST SWAP3 SWAP2 POP POP JUMP JUMPDEST PUSH0 DUP1 REVERT JUMPDEST PUSH0 DUP1 REVERT JUMPDEST PUSH0 PUSH1 0x1F NOT PUSH1 0x1F DUP4 ADD AND SWAP1 POP SWAP2 SWAP1 POP JUMP JUMPDEST PUSH32 0x4E487B7100000000000000000000000000000000000000000000000000000000 PUSH0 MSTORE PUSH1 0x41 PUSH1 0x4 MSTORE PUSH1 0x24 PUSH0 REVERT JUMPDEST PUSH2 0x45B DUP3 PUSH2 0x415 JUMP JUMPDEST DUP2 ADD DUP2 DUP2 LT PUSH8 0xFFFFFFFFFFFFFFFF DUP3 GT OR ISZERO PUSH2 0x47A JUMPI PUSH2 0x479 PUSH2 0x425 JUMP JUMPDEST JUMPDEST DUP1 PUSH1 0x40 MSTORE POP POP POP JUMP JUMPDEST PUSH0 PUSH2 0x48C PUSH2 0x36B JUMP JUMPDEST SWAP1 POP PUSH2 0x498 DUP3 DUP3 PUSH2 0x452 JUMP JUMPDEST SWAP2 SWAP1 POP JUMP JUMPDEST PUSH0 PUSH8 0xFFFFFFFFFFFFFFFF DUP3 GT ISZERO PUSH2 0x4B7 JUMPI PUSH2 0x4B6 PUSH2 0x425 JUMP JUMPDEST JUMPDEST PUSH2 0x4C0 DUP3 PUSH2 0x415 JUMP JUMPDEST SWAP1 POP PUSH1 0x20 DUP2 ADD SWAP1 POP SWAP2 SWAP1 POP JUMP JUMPDEST DUP3 DUP2 DUP4 CALLDATACOPY PUSH0 DUP4 DUP4 ADD MSTORE POP POP POP JUMP JUMPDEST PUSH0 PUSH2 0x4ED PUSH2 0x4E8 DUP5 PUSH2 0x49D JUMP JUMPDEST PUSH2 0x483 JUMP JUMPDEST SWAP1 POP DUP3 DUP2 MSTORE PUSH1 0x20 DUP2 ADD DUP5 DUP5 DUP5 ADD GT ISZERO PUSH2 0x509 JUMPI PUSH2 0x508 PUSH2 0x411 JUMP JUMPDEST JUMPDEST PUSH2 0x514 DUP5 DUP3 DUP6 PUSH2 0x4CD JUMP JUMPDEST POP SWAP4 SWAP3 POP POP POP JUMP JUMPDEST PUSH0 DUP3 PUSH1 0x1F DUP4 ADD SLT PUSH2 0x530 JUMPI PUSH2 0x52F PUSH2 0x40D JUMP JUMPDEST JUMPDEST DUP2 CALLDATALOAD PUSH2 0x540 DUP5 DUP3 PUSH1 0x20 DUP7 ADD PUSH2 0x4DB JUMP JUMPDEST SWAP2 POP POP SWAP3 SWAP2 POP POP JUMP JUMPDEST PUSH0 DUP1 PUSH1 0x40 DUP4 DUP6 SUB SLT ISZERO PUSH2 0x55F JUMPI PUSH2 0x55E PUSH2 0x374 JUMP JUMPDEST JUMPDEST PUSH0 DUP4 ADD CALLDATALOAD PUSH8 0xFFFFFFFFFFFFFFFF DUP2 GT ISZERO PUSH2 0x57C JUMPI PUSH2 0x57B PUSH2 0x378 JUMP JUMPDEST JUMPDEST PUSH2 0x588 DUP6 DUP3 DUP7 ADD PUSH2 0x51C JUMP JUMPDEST SWAP3 POP POP PUSH1 0x20 DUP4 ADD CALLDATALOAD PUSH8 0xFFFFFFFFFFFFFFFF DUP2 GT ISZERO PUSH2 0x5A9 JUMPI PUSH2 0x5A8 PUSH2 0x378 JUMP JUMPDEST JUMPDEST PUSH2 0x5B5 DUP6 DUP3 DUP7 ADD PUSH2 0x51C JUMP JUMPDEST SWAP2 POP POP SWAP3 POP SWAP3 SWAP1 POP JUMP JUMPDEST PUSH0 DUP2 MLOAD SWAP1 POP SWAP2 SWAP1 POP JUMP JUMPDEST PUSH0 DUP3 DUP3 MSTORE PUSH1 0x20 DUP3 ADD SWAP1 POP SWAP3 SWAP2 POP POP JUMP JUMPDEST DUP3 DUP2 DUP4 MCOPY PUSH0 DUP4 DUP4 ADD MSTORE POP POP POP JUMP JUMPDEST PUSH0 PUSH2 0x5F1 DUP3 PUSH2 0x5BF JUMP JUMPDEST PUSH2 0x5FB DUP2 DUP6 PUSH2 0x5C9 JUMP JUMPDEST SWAP4 POP PUSH2 0x60B DUP2 DUP6 PUSH1 0x20 DUP7 ADD PUSH2 0x5D9 JUMP JUMPDEST PUSH2 0x614 DUP2 PUSH2 0x415 JUMP JUMPDEST DUP5 ADD SWAP2 POP POP SWAP3 SWAP2 POP POP JUMP JUMPDEST PUSH0 PUSH1 0x20 DUP3 ADD SWAP1 POP DUP2 DUP2 SUB PUSH0 DUP4 ADD MSTORE PUSH2 0x637 DUP2 DUP5 PUSH2 0x5E7 JUMP JUMPDEST SWAP1 POP SWAP3 SWAP2 POP POP JUMP JUMPDEST PUSH0 PUSH8 0xFFFFFFFFFFFFFFFF DUP3 GT ISZERO PUSH2 0x659 JUMPI PUSH2 0x658 PUSH2 0x425 JUMP JUMPDEST JUMPDEST PUSH1 0x20 DUP3 MUL SWAP1 POP PUSH1 0x20 DUP2 ADD SWAP1 POP SWAP2 SWAP1 POP JUMP JUMPDEST PUSH0 DUP1 REVERT JUMPDEST PUSH0 PUSH2 0x680 PUSH2 0x67B DUP5 PUSH2 0x63F JUMP JUMPDEST PUSH2 0x483 JUMP JUMPDEST SWAP1 POP DUP1 DUP4 DUP3 MSTORE PUSH1 0x20 DUP3 ADD SWAP1 POP PUSH1 0x20 DUP5 MUL DUP4 ADD DUP6 DUP2 GT ISZERO PUSH2 0x6A3 JUMPI PUSH2 0x6A2 PUSH2 0x66A JUMP JUMPDEST JUMPDEST DUP4 JUMPDEST DUP2 DUP2 LT ISZERO PUSH2 0x6CC JUMPI DUP1 PUSH2 0x6B8 DUP9 DUP3 PUSH2 0x39B JUMP JUMPDEST DUP5 MSTORE PUSH1 0x20 DUP5 ADD SWAP4 POP POP PUSH1 0x20 DUP2 ADD SWAP1 POP PUSH2 0x6A5 JUMP JUMPDEST POP POP POP SWAP4 SWAP3 POP POP POP JUMP JUMPDEST PUSH0 DUP3 PUSH1 0x1F DUP4 ADD SLT PUSH2 0x6EA JUMPI PUSH2 0x6E9 PUSH2 0x40D JUMP JUMPDEST JUMPDEST DUP2 CALLDATALOAD PUSH2 0x6FA DUP5 DUP3 PUSH1 0x20 DUP7 ADD PUSH2 0x66E JUMP JUMPDEST SWAP2 POP POP SWAP3 SWAP2 POP POP JUMP JUMPDEST PUSH0 DUP1 PUSH1 0x40 DUP4 DUP6 SUB SLT ISZERO PUSH2 0x719 JUMPI PUSH2 0x718 PUSH2 0x374 JUMP JUMPDEST JUMPDEST PUSH0 DUP4 ADD CALLDATALOAD PUSH8 0xFFFFFFFFFFFFFFFF DUP2 GT ISZERO PUSH2 0x736 JUMPI PUSH2 0x735 PUSH2 0x378 JUMP JUMPDEST JUMPDEST PUSH2 0x742 DUP6 DUP3 DUP7 ADD PUSH2 0x6D6 JUMP JUMPDEST SWAP3 POP POP PUSH1 0x20 PUSH2 0x753 DUP6 DUP3 DUP7 ADD PUSH2 0x39B JUMP JUMPDEST SWAP2 POP POP SWAP3 POP SWAP3 SWAP1 POP JUMP JUMPDEST PUSH2 0x766 DUP2 PUSH2 0x37C JUMP JUMPDEST DUP3 MSTORE POP POP JUMP JUMPDEST PUSH0 PUSH1 0x20 DUP3 ADD SWAP1 POP PUSH2 0x77F PUSH0 DUP4 ADD DUP5 PUSH2 0x75D JUMP JUMPDEST SWAP3 SWAP2 POP POP JUMP JUMPDEST PUSH32 0x4E487B7100000000000000000000000000000000000000000000000000000000 PUSH0 MSTORE PUSH1 0x12 PUSH1 0x4 MSTORE PUSH1 0x24 PUSH0 REVERT JUMPDEST PUSH32 0x4E487B7100000000000000000000000000000000000000000000000000000000 PUSH0 MSTORE PUSH1 0x11 PUSH1 0x4 MSTORE PUSH1 0x24 PUSH0 REVERT JUMPDEST PUSH0 PUSH2 0x7E9 DUP3 PUSH2 0x37C JUMP JUMPDEST SWAP2 POP PUSH2 0x7F4 DUP4 PUSH2 0x37C JUMP JUMPDEST SWAP3 POP DUP3 PUSH2 0x804 JUMPI PUSH2 0x803 PUSH2 0x785 JUMP JUMPDEST JUMPDEST DUP3 DUP3 DIV SWAP1 POP SWAP3 SWAP2 POP POP JUMP JUMPDEST PUSH0 PUSH2 0x819 DUP3 PUSH2 0x37C JUMP JUMPDEST SWAP2 POP PUSH2 0x824 DUP4 PUSH2 0x37C JUMP JUMPDEST SWAP3 POP DUP3 PUSH2 0x834 JUMPI PUSH2 0x833 PUSH2 0x785 JUMP JUMPDEST JUMPDEST DUP3 DUP3 MOD SWAP1 POP SWAP3 SWAP2 POP POP JUMP JUMPDEST PUSH0 PUSH2 0x849 DUP3 PUSH2 0x37C JUMP JUMPDEST SWAP2 POP PUSH2 0x854 DUP4 PUSH2 0x37C JUMP JUMPDEST SWAP3 POP DUP3 DUP3 ADD SWAP1 POP DUP1 DUP3 GT ISZERO PUSH2 0x86C JUMPI PUSH2 0x86B PUSH2 0x7B2 JUMP JUMPDEST JUMPDEST SWAP3 SWAP2 POP POP JUMP JUMPDEST PUSH0 PUSH2 0x87C DUP3 PUSH2 0x37C JUMP JUMPDEST SWAP2 POP PUSH2 0x887 DUP4 PUSH2 0x37C JUMP JUMPDEST SWAP3 POP DUP3 DUP3 SUB SWAP1 POP DUP2 DUP2 GT ISZERO PUSH2 0x89F JUMPI PUSH2 0x89E PUSH2 0x7B2 JUMP JUMPDEST JUMPDEST SWAP3 SWAP2 POP POP JUMP JUMPDEST PUSH0 DUP2 PUSH1 0x1 SHR SWAP1 POP SWAP2 SWAP1 POP JUMP JUMPDEST PUSH0 DUP1 DUP3 SWAP2 POP DUP4 SWAP1 POP JUMPDEST PUSH1 0x1 DUP6 GT ISZERO PUSH2 0x8FA JUMPI DUP1 DUP7 DIV DUP2 GT ISZERO PUSH2 0x8D6 JUMPI PUSH2 0x8D5 PUSH2 0x7B2 JUMP JUMPDEST JUMPDEST PUSH1 0x1 DUP6 AND ISZERO PUSH2 0x8E5 JUMPI DUP1 DUP3 MUL SWAP2 POP JUMPDEST DUP1 DUP2 MUL SWAP1 POP PUSH2 0x8F3 DUP6 PUSH2 0x8A5 JUMP JUMPDEST SWAP5 POP PUSH2 0x8BA JUMP JUMPDEST SWAP5 POP SWAP5 SWAP3 POP POP POP JUMP JUMPDEST PUSH0 DUP3 PUSH2 0x912 JUMPI PUSH1 0x1 SWAP1 POP PUSH2 0x9CD JUMP JUMPDEST DUP2 PUSH2 0x91F JUMPI PUSH0 SWAP1 POP PUSH2 0x9CD JUMP JUMPDEST DUP2 PUSH1 0x1 DUP2 EQ PUSH2 0x935 JUMPI PUSH1 0x2 DUP2 EQ PUSH2 0x93F JUMPI PUSH2 0x96E JUMP JUMPDEST PUSH1 0x1 SWAP2 POP POP PUSH2 0x9CD JUMP JUMPDEST PUSH1 0xFF DUP5 GT ISZERO PUSH2 0x951 JUMPI PUSH2 0x950 PUSH2 0x7B2 JUMP JUMPDEST JUMPDEST DUP4 PUSH1 0x2 EXP SWAP2 POP DUP5 DUP3 GT ISZERO PUSH2 0x968 JUMPI PUSH2 0x967 PUSH2 0x7B2 JUMP JUMPDEST JUMPDEST POP PUSH2 0x9CD JUMP JUMPDEST POP PUSH1 0x20 DUP4 LT PUSH2 0x133 DUP4 LT AND PUSH1 0x4E DUP5 LT PUSH1 0xB DUP5 LT AND OR ISZERO PUSH2 0x9A3 JUMPI DUP3 DUP3 EXP SWAP1 POP DUP4 DUP2 GT ISZERO PUSH2 0x99E JUMPI PUSH2 0x99D PUSH2 0x7B2 JUMP JUMPDEST JUMPDEST PUSH2 0x9CD JUMP JUMPDEST PUSH2 0x9B0 DUP5 DUP5 DUP5 PUSH1 0x1 PUSH2 0x8B1 JUMP JUMPDEST SWAP3 POP SWAP1 POP DUP2 DUP5 DIV DUP2 GT ISZERO PUSH2 0x9C7 JUMPI PUSH2 0x9C6 PUSH2 0x7B2 JUMP JUMPDEST JUMPDEST DUP2 DUP2 MUL SWAP1 POP JUMPDEST SWAP4 SWAP3 POP POP POP JUMP JUMPDEST PUSH0 PUSH2 0x9DE DUP3 PUSH2 0x37C JUMP JUMPDEST SWAP2 POP PUSH2 0x9E9 DUP4 PUSH2 0x37C JUMP JUMPDEST SWAP3 POP PUSH2 0xA16 PUSH32 0xFFFFFFFFFFFFFFFFFFFFFFFFFFFFFFFFFFFFFFFFFFFFFFFFFFFFFFFFFFFFFFFF DUP5 DUP5 PUSH2 0x903 JUMP JUMPDEST SWAP1 POP SWAP3 SWAP2 POP POP JUMP JUMPDEST PUSH0 PUSH2 0xA28 DUP3 PUSH2 0x37C JUMP JUMPDEST SWAP2 POP PUSH2 0xA33 DUP4 PUSH2 0x37C JUMP JUMPDEST SWAP3 POP DUP3 DUP3 MUL PUSH2 0xA41 DUP2 PUSH2 0x37C JUMP JUMPDEST SWAP2 POP DUP3 DUP3 DIV DUP5 EQ DUP4 ISZERO OR PUSH2 0xA58 JUMPI PUSH2 0xA57 PUSH2 0x7B2 JUMP JUMPDEST JUMPDEST POP SWAP3 SWAP2 POP POP JUMP JUMPDEST PUSH0 PUSH2 0xA69 DUP3 PUSH2 0x37C JUMP JUMPDEST SWAP2 POP PUSH32 0xFFFFFFFFFFFFFFFFFFFFFFFFFFFFFFFFFFFFFFFFFFFFFFFFFFFFFFFFFFFFFFFF DUP3 SUB PUSH2 0xA9B JUMPI PUSH2 0xA9A PUSH2 0x7B2 JUMP JUMPDEST JUMPDEST PUSH1 0x1 DUP3 ADD SWAP1 POP SWAP2 SWAP1 POP JUMP JUMPDEST PUSH0 DUP2 SWAP1 POP SWAP3 SWAP2 POP POP JUMP JUMPDEST PUSH0 PUSH2 0xABA DUP3 PUSH2 0x5BF JUMP JUMPDEST PUSH2 0xAC4 DUP2 DUP6 PUSH2 0xAA6 JUMP JUMPDEST SWAP4 POP PUSH2 0xAD4 DUP2 DUP6 PUSH1 0x20 DUP7 ADD PUSH2 0x5D9 JUMP JUMPDEST DUP1 DUP5 ADD SWAP2 POP POP SWAP3 SWAP2 POP POP JUMP JUMPDEST PUSH0 PUSH2 0xAEB DUP3 DUP6 PUSH2 0xAB0 JUMP JUMPDEST SWAP2 POP PUSH2 0xAF7 DUP3 DUP5 PUSH2 0xAB0 JUMP JUMPDEST SWAP2 POP DUP2 SWAP1 POP SWAP4 SWAP3 POP POP POP JUMP JUMPDEST PUSH32 0x4E487B7100000000000000000000000000000000000000000000000000000000 PUSH0 MSTORE PUSH1 0x32 PUSH1 0x4 MSTORE PUSH1 0x24 PUSH0 REVERT INVALID LOG2 PUSH5 0x6970667358 0x22 SLT KECCAK256 0x22 0xAA 0xFC 0xE9 0xB3 MLOAD MOD MLOAD 0xE 0xF6 TLOAD DUP16 0xE8 CALLER DUP1 PUSH23 0x1FDEBDB887CA16A6F663BB58B4C30B6264736F6C634300 ADDMOD BYTE STOP CALLER "
		},
		"gasEstimates": {
			"creation": {
				"codeDepositCost": "583600",
				"executionCost": "617",
				"totalCost": "584217"
			},
			"external": {
				"concatenateStrings(string,string)": "infinite",
				"distinct(uint256[],uint256)": "infinite",
				"getResult()": "infinite",
				"isPalindrome(uint256)": "infinite",
				"printName()": "infinite"
			},
			"internal": {
				"numDigits(uint256)": "infinite"
			}
		},
		"methodIdentifiers": {
			"concatenateStrings(string,string)": "7a36b3ee",
			"distinct(uint256[],uint256)": "858986a8",
			"getResult()": "de292789",
			"isPalindrome(uint256)": "041a4e56",
			"printName()": "bf7297a2"
		}
	},
	"abi": [
		{
			"inputs": [],
			"stateMutability": "nonpayable",
			"type": "constructor"
		},
		{
			"inputs": [
				{
					"internalType": "string",
					"name": "s1",
					"type": "string"
				},
				{
					"internalType": "string",
					"name": "s2",
					"type": "string"
				}
			],
			"name": "concatenateStrings",
			"outputs": [
				{
					"internalType": "string",
					"name": "",
					"type": "string"
				}
			],
			"stateMutability": "pure",
			"type": "function"
		},
		{
			"inputs": [
				{
					"internalType": "uint256[]",
					"name": "values",
					"type": "uint256[]"
				},
				{
					"internalType": "uint256",
					"name": "n",
					"type": "uint256"
				}
			],
			"name": "distinct",
			"outputs": [
				{
					"internalType": "uint256",
					"name": "",
					"type": "uint256"
				}
			],
			"stateMutability": "pure",
			"type": "function"
		},
		{
			"inputs": [],
			"name": "getResult",
			"outputs": [
				{
					"internalType": "uint256",
					"name": "",
					"type": "uint256"
				}
			],
			"stateMutability": "pure",
			"type": "function"
		},
		{
			"inputs": [
				{
					"internalType": "uint256",
					"name": "num",
					"type": "uint256"
				}
			],
			"name": "isPalindrome",
			"outputs": [
				{
					"internalType": "bool",
					"name": "",
					"type": "bool"
				}
			],
			"stateMutability": "pure",
			"type": "function"
		},
		{
			"inputs": [],
			"name": "printName",
			"outputs": [
				{
					"internalType": "string",
					"name": "",
					"type": "string"
				}
			],
			"stateMutability": "pure",
			"type": "function"
		}
	]
}